{
  "contractName": "IdentityWallet",
  "abi": [
    {
      "anonymous": false,
      "inputs": [
        {
          "indexed": false,
          "internalType": "string",
          "name": "msg",
          "type": "string"
        }
      ],
      "name": "Log",
      "type": "event"
    },
    {
      "anonymous": false,
      "inputs": [
        {
          "indexed": true,
          "internalType": "address",
          "name": "previousOwner",
          "type": "address"
        },
        {
          "indexed": true,
          "internalType": "address",
          "name": "newOwner",
          "type": "address"
        }
      ],
      "name": "OwnershipTransferred",
      "type": "event"
    },
    {
      "anonymous": false,
      "inputs": [
        {
          "indexed": false,
          "internalType": "uint256",
          "name": "age",
          "type": "uint256"
        },
        {
          "indexed": false,
          "internalType": "uint256",
          "name": "ph",
          "type": "uint256"
        },
        {
          "indexed": false,
          "internalType": "string",
          "name": "nom",
          "type": "string"
        }
      ],
      "name": "Profile",
      "type": "event"
    },
    {
      "inputs": [],
      "name": "basicProfile",
      "outputs": [
        {
          "internalType": "string",
          "name": "fname",
          "type": "string"
        },
        {
          "internalType": "uint256",
          "name": "age",
          "type": "uint256"
        },
        {
          "internalType": "uint256",
          "name": "phone",
          "type": "uint256"
        }
      ],
      "stateMutability": "view",
      "type": "function",
      "constant": true
    },
    {
      "inputs": [],
      "name": "owner",
      "outputs": [
        {
          "internalType": "address",
          "name": "",
          "type": "address"
        }
      ],
      "stateMutability": "view",
      "type": "function",
      "constant": true
    },
    {
      "inputs": [],
      "name": "renounceOwnership",
      "outputs": [],
      "stateMutability": "nonpayable",
      "type": "function"
    },
    {
      "inputs": [
        {
          "internalType": "address",
          "name": "newOwner",
          "type": "address"
        }
      ],
      "name": "transferOwnership",
      "outputs": [],
      "stateMutability": "nonpayable",
      "type": "function"
    },
    {
      "inputs": [
        {
          "internalType": "address",
          "name": "",
          "type": "address"
        }
      ],
      "name": "userProfile",
      "outputs": [
        {
          "internalType": "string",
          "name": "fname",
          "type": "string"
        },
        {
          "internalType": "uint256",
          "name": "age",
          "type": "uint256"
        },
        {
          "internalType": "uint256",
          "name": "phone",
          "type": "uint256"
        }
      ],
      "stateMutability": "view",
      "type": "function",
      "constant": true
    },
    {
      "inputs": [
        {
          "internalType": "uint256",
          "name": "x",
          "type": "uint256"
        }
      ],
      "name": "set",
      "outputs": [],
      "stateMutability": "nonpayable",
      "type": "function"
    },
    {
      "inputs": [],
      "name": "get",
      "outputs": [
        {
          "internalType": "uint256",
          "name": "",
          "type": "uint256"
        }
      ],
      "stateMutability": "view",
      "type": "function",
      "constant": true
    },
    {
      "inputs": [],
      "name": "adminTasks",
      "outputs": [],
      "stateMutability": "nonpayable",
      "type": "function"
    },
    {
      "inputs": [
        {
          "internalType": "address",
          "name": "_userAddress",
          "type": "address"
        }
      ],
      "name": "mapToRoot",
      "outputs": [],
      "stateMutability": "nonpayable",
      "type": "function"
    },
    {
      "inputs": [
        {
          "internalType": "address",
          "name": "userAddress",
          "type": "address"
        }
      ],
      "name": "setupRootUser",
      "outputs": [
        {
          "internalType": "string",
          "name": "",
          "type": "string"
        }
      ],
      "stateMutability": "nonpayable",
      "type": "function"
    },
    {
      "inputs": [
        {
          "internalType": "uint256",
          "name": "_age",
          "type": "uint256"
        },
        {
          "internalType": "uint256",
          "name": "_phone",
          "type": "uint256"
        },
        {
          "internalType": "string",
          "name": "_name",
          "type": "string"
        }
      ],
      "name": "updateProfile",
      "outputs": [],
      "stateMutability": "payable",
      "type": "function",
      "payable": true
    },
    {
      "inputs": [],
      "name": "readProfile",
      "outputs": [
        {
          "internalType": "string",
          "name": "_name",
          "type": "string"
        },
        {
          "internalType": "uint256",
          "name": "_age",
          "type": "uint256"
        },
        {
          "internalType": "uint256",
          "name": "_phone",
          "type": "uint256"
        }
      ],
      "stateMutability": "nonpayable",
      "type": "function"
    }
  ],
  "bytecode": "0x608060405234801561001057600080fd5b5061002d61002261003260201b60201c565b61003a60201b60201c565b6100fe565b600033905090565b60008060009054906101000a900473ffffffffffffffffffffffffffffffffffffffff169050816000806101000a81548173ffffffffffffffffffffffffffffffffffffffff021916908373ffffffffffffffffffffffffffffffffffffffff1602179055508173ffffffffffffffffffffffffffffffffffffffff168173ffffffffffffffffffffffffffffffffffffffff167f8be0079c531659141344cd1fd0a4f28419497f9722a3daafe3b4186f6b6457e060405160405180910390a35050565b6118d48061010d6000396000f3fe6080604052600436106100a75760003560e01c80638da5cb5b116100645780638da5cb5b146101c0578063ab00a3a0146101eb578063b87d85e414610202578063e00f3b1f1461021e578063e715c26b1461024b578063f2fde38b14610274576100a7565b80631c8e8962146100ac57806322bb93fe146100eb5780632b0b399f1461011857806360fe47b1146101555780636d4ce63c1461017e578063715018a6146101a9575b600080fd5b3480156100b857600080fd5b506100d360048036038101906100ce91906111d0565b61029d565b6040516100e2939291906112af565b60405180910390f35b3480156100f757600080fd5b5061010061034f565b60405161010f939291906112af565b60405180910390f35b34801561012457600080fd5b5061013f600480360381019061013a91906111d0565b610678565b60405161014c91906112ed565b60405180910390f35b34801561016157600080fd5b5061017c6004803603810190610177919061133b565b6109c3565b005b34801561018a57600080fd5b506101936109cd565b6040516101a09190611368565b60405180910390f35b3480156101b557600080fd5b506101be6109d7565b005b3480156101cc57600080fd5b506101d5610a5f565b6040516101e29190611392565b60405180910390f35b3480156101f757600080fd5b50610200610a88565b005b61021c600480360381019061021791906114e2565b610b06565b005b34801561022a57600080fd5b50610233610d42565b604051610242939291906112af565b60405180910390f35b34801561025757600080fd5b50610272600480360381019061026d91906111d0565b610de2565b005b34801561028057600080fd5b5061029b600480360381019061029691906111d0565b610ef7565b005b60056020528060005260406000206000915090508060000180546102c090611580565b80601f01602080910402602001604051908101604052809291908181526020018280546102ec90611580565b80156103395780601f1061030e57610100808354040283529160200191610339565b820191906000526020600020905b81548152906001019060200180831161031c57829003601f168201915b5050505050908060010154908060020154905083565b6060600080600073ffffffffffffffffffffffffffffffffffffffff163373ffffffffffffffffffffffffffffffffffffffff1614156103c4576040517f08c379a00000000000000000000000000000000000000000000000000000000081526004016103bb906115fe565b60405180910390fd5b60056000600460003373ffffffffffffffffffffffffffffffffffffffff1673ffffffffffffffffffffffffffffffffffffffff16815260200190815260200160002060009054906101000a900473ffffffffffffffffffffffffffffffffffffffff1673ffffffffffffffffffffffffffffffffffffffff1673ffffffffffffffffffffffffffffffffffffffff168152602001908152602001600020600001805461047090611580565b80601f016020809104026020016040519081016040528092919081815260200182805461049c90611580565b80156104e95780601f106104be576101008083540402835291602001916104e9565b820191906000526020600020905b8154815290600101906020018083116104cc57829003601f168201915b5050505050925060056000600460003373ffffffffffffffffffffffffffffffffffffffff1673ffffffffffffffffffffffffffffffffffffffff16815260200190815260200160002060009054906101000a900473ffffffffffffffffffffffffffffffffffffffff1673ffffffffffffffffffffffffffffffffffffffff1673ffffffffffffffffffffffffffffffffffffffff16815260200190815260200160002060010154915060056000600460003373ffffffffffffffffffffffffffffffffffffffff1673ffffffffffffffffffffffffffffffffffffffff16815260200190815260200160002060009054906101000a900473ffffffffffffffffffffffffffffffffffffffff1673ffffffffffffffffffffffffffffffffffffffff1673ffffffffffffffffffffffffffffffffffffffff1681526020019081526020016000206002015490507f2a87d9909af0ee837a9764328d37c5f4d76a594036399c0d7591a7042633e07b82828560405161066b9392919061161e565b60405180910390a1909192565b6060610682610fef565b73ffffffffffffffffffffffffffffffffffffffff166106a0610a5f565b73ffffffffffffffffffffffffffffffffffffffff16146106f6576040517f08c379a00000000000000000000000000000000000000000000000000000000081526004016106ed906116a8565b60405180910390fd5b6060600073ffffffffffffffffffffffffffffffffffffffff16600460008573ffffffffffffffffffffffffffffffffffffffff1673ffffffffffffffffffffffffffffffffffffffff16815260200190815260200160002060009054906101000a900473ffffffffffffffffffffffffffffffffffffffff1673ffffffffffffffffffffffffffffffffffffffff16146108465782600460008573ffffffffffffffffffffffffffffffffffffffff1673ffffffffffffffffffffffffffffffffffffffff16815260200190815260200160002060006101000a81548173ffffffffffffffffffffffffffffffffffffffff021916908373ffffffffffffffffffffffffffffffffffffffff1602179055506040518060400160405280600581526020017f416464656400000000000000000000000000000000000000000000000000000081525090506109ba565b8273ffffffffffffffffffffffffffffffffffffffff16600460008573ffffffffffffffffffffffffffffffffffffffff1673ffffffffffffffffffffffffffffffffffffffff16815260200190815260200160002060009054906101000a900473ffffffffffffffffffffffffffffffffffffffff1673ffffffffffffffffffffffffffffffffffffffff16141561094b577fcf34ef537ac33ee1ac626ca1587a0a7e8e51561e5514f8cb36afa1c5102b3bab60405161090690611714565b60405180910390a16040518060400160405280601181526020017f416c726561647920726f6f74207573657200000000000000000000000000000081525090506109b9565b7fcf34ef537ac33ee1ac626ca1587a0a7e8e51561e5514f8cb36afa1c5102b3bab60405161097890611780565b60405180910390a16040518060400160405280601681526020017f496e76616c69642061636365737320726571756573740000000000000000000081525090505b5b80915050919050565b8060068190555050565b6000600654905090565b6109df610fef565b73ffffffffffffffffffffffffffffffffffffffff166109fd610a5f565b73ffffffffffffffffffffffffffffffffffffffff1614610a53576040517f08c379a0000000000000000000000000000000000000000000000000000000008152600401610a4a906116a8565b60405180910390fd5b610a5d6000610ff7565b565b60008060009054906101000a900473ffffffffffffffffffffffffffffffffffffffff16905090565b610a90610fef565b73ffffffffffffffffffffffffffffffffffffffff16610aae610a5f565b73ffffffffffffffffffffffffffffffffffffffff1614610b04576040517f08c379a0000000000000000000000000000000000000000000000000000000008152600401610afb906116a8565b60405180910390fd5b565b8060056000600460003373ffffffffffffffffffffffffffffffffffffffff1673ffffffffffffffffffffffffffffffffffffffff16815260200190815260200160002060009054906101000a900473ffffffffffffffffffffffffffffffffffffffff1673ffffffffffffffffffffffffffffffffffffffff1673ffffffffffffffffffffffffffffffffffffffff1681526020019081526020016000206000019080519060200190610bbb9291906110bb565b508260056000600460003373ffffffffffffffffffffffffffffffffffffffff1673ffffffffffffffffffffffffffffffffffffffff16815260200190815260200160002060009054906101000a900473ffffffffffffffffffffffffffffffffffffffff1673ffffffffffffffffffffffffffffffffffffffff1673ffffffffffffffffffffffffffffffffffffffff168152602001908152602001600020600101819055508160056000600460003373ffffffffffffffffffffffffffffffffffffffff1673ffffffffffffffffffffffffffffffffffffffff16815260200190815260200160002060009054906101000a900473ffffffffffffffffffffffffffffffffffffffff1673ffffffffffffffffffffffffffffffffffffffff1673ffffffffffffffffffffffffffffffffffffffff168152602001908152602001600020600201819055507fcf34ef537ac33ee1ac626ca1587a0a7e8e51561e5514f8cb36afa1c5102b3bab604051610d35906117ec565b60405180910390a1505050565b6001806000018054610d5390611580565b80601f0160208091040260200160405190810160405280929190818152602001828054610d7f90611580565b8015610dcc5780601f10610da157610100808354040283529160200191610dcc565b820191906000526020600020905b815481529060010190602001808311610daf57829003601f168201915b5050505050908060010154908060020154905083565b3373ffffffffffffffffffffffffffffffffffffffff16600460003373ffffffffffffffffffffffffffffffffffffffff1673ffffffffffffffffffffffffffffffffffffffff16815260200190815260200160002060009054906101000a900473ffffffffffffffffffffffffffffffffffffffff1673ffffffffffffffffffffffffffffffffffffffff161415610ef45733600460008373ffffffffffffffffffffffffffffffffffffffff1673ffffffffffffffffffffffffffffffffffffffff16815260200190815260200160002060006101000a81548173ffffffffffffffffffffffffffffffffffffffff021916908373ffffffffffffffffffffffffffffffffffffffff1602179055505b50565b610eff610fef565b73ffffffffffffffffffffffffffffffffffffffff16610f1d610a5f565b73ffffffffffffffffffffffffffffffffffffffff1614610f73576040517f08c379a0000000000000000000000000000000000000000000000000000000008152600401610f6a906116a8565b60405180910390fd5b600073ffffffffffffffffffffffffffffffffffffffff168173ffffffffffffffffffffffffffffffffffffffff161415610fe3576040517f08c379a0000000000000000000000000000000000000000000000000000000008152600401610fda9061187e565b60405180910390fd5b610fec81610ff7565b50565b600033905090565b60008060009054906101000a900473ffffffffffffffffffffffffffffffffffffffff169050816000806101000a81548173ffffffffffffffffffffffffffffffffffffffff021916908373ffffffffffffffffffffffffffffffffffffffff1602179055508173ffffffffffffffffffffffffffffffffffffffff168173ffffffffffffffffffffffffffffffffffffffff167f8be0079c531659141344cd1fd0a4f28419497f9722a3daafe3b4186f6b6457e060405160405180910390a35050565b8280546110c790611580565b90600052602060002090601f0160209004810192826110e95760008555611130565b82601f1061110257805160ff1916838001178555611130565b82800160010185558215611130579182015b8281111561112f578251825591602001919060010190611114565b5b50905061113d9190611141565b5090565b5b8082111561115a576000816000905550600101611142565b5090565b6000604051905090565b600080fd5b600080fd5b600073ffffffffffffffffffffffffffffffffffffffff82169050919050565b600061119d82611172565b9050919050565b6111ad81611192565b81146111b857600080fd5b50565b6000813590506111ca816111a4565b92915050565b6000602082840312156111e6576111e5611168565b5b60006111f4848285016111bb565b91505092915050565b600081519050919050565b600082825260208201905092915050565b60005b8381101561123757808201518184015260208101905061121c565b83811115611246576000848401525b50505050565b6000601f19601f8301169050919050565b6000611268826111fd565b6112728185611208565b9350611282818560208601611219565b61128b8161124c565b840191505092915050565b6000819050919050565b6112a981611296565b82525050565b600060608201905081810360008301526112c9818661125d565b90506112d860208301856112a0565b6112e560408301846112a0565b949350505050565b60006020820190508181036000830152611307818461125d565b905092915050565b61131881611296565b811461132357600080fd5b50565b6000813590506113358161130f565b92915050565b60006020828403121561135157611350611168565b5b600061135f84828501611326565b91505092915050565b600060208201905061137d60008301846112a0565b92915050565b61138c81611192565b82525050565b60006020820190506113a76000830184611383565b92915050565b600080fd5b600080fd5b7f4e487b7100000000000000000000000000000000000000000000000000000000600052604160045260246000fd5b6113ef8261124c565b810181811067ffffffffffffffff8211171561140e5761140d6113b7565b5b80604052505050565b600061142161115e565b905061142d82826113e6565b919050565b600067ffffffffffffffff82111561144d5761144c6113b7565b5b6114568261124c565b9050602081019050919050565b82818337600083830152505050565b600061148561148084611432565b611417565b9050828152602081018484840111156114a1576114a06113b2565b5b6114ac848285611463565b509392505050565b600082601f8301126114c9576114c86113ad565b5b81356114d9848260208601611472565b91505092915050565b6000806000606084860312156114fb576114fa611168565b5b600061150986828701611326565b935050602061151a86828701611326565b925050604084013567ffffffffffffffff81111561153b5761153a61116d565b5b611547868287016114b4565b9150509250925092565b7f4e487b7100000000000000000000000000000000000000000000000000000000600052602260045260246000fd5b6000600282049050600182168061159857607f821691505b602082108114156115ac576115ab611551565b5b50919050565b7f496e76616c696420647564650000000000000000000000000000000000000000600082015250565b60006115e8600c83611208565b91506115f3826115b2565b602082019050919050565b60006020820190508181036000830152611617816115db565b9050919050565b600060608201905061163360008301866112a0565b61164060208301856112a0565b8181036040830152611652818461125d565b9050949350505050565b7f4f776e61626c653a2063616c6c6572206973206e6f7420746865206f776e6572600082015250565b6000611692602083611208565b915061169d8261165c565b602082019050919050565b600060208201905081810360008301526116c181611685565b9050919050565b7f416c7265616479206120726f6f74207573657200000000000000000000000000600082015250565b60006116fe601383611208565b9150611709826116c8565b602082019050919050565b6000602082019050818103600083015261172d816116f1565b9050919050565b7f496e76616c696420616363657373207265717565737400000000000000000000600082015250565b600061176a601683611208565b915061177582611734565b602082019050919050565b600060208201905081810360008301526117998161175d565b9050919050565b7f557064617465642050726f66696c650000000000000000000000000000000000600082015250565b60006117d6600f83611208565b91506117e1826117a0565b602082019050919050565b60006020820190508181036000830152611805816117c9565b9050919050565b7f4f776e61626c653a206e6577206f776e657220697320746865207a65726f206160008201527f6464726573730000000000000000000000000000000000000000000000000000602082015250565b6000611868602683611208565b91506118738261180c565b604082019050919050565b600060208201905081810360008301526118978161185b565b905091905056fea2646970667358221220e09ab8f88c8e9f953b79ca8b0687526ec8cc5876e425091dccf467ae790e3aa664736f6c634300080a0033",
  "immutableReferences": {},
  "source": "// SPDX-License-Identifier: MIT\npragma solidity >=0.4.22 <0.9.0;\n\nimport \"../node_modules/@openzeppelin/contracts/access/Ownable.sol\";\n\ncontract IdentityWallet is Ownable{\n\n//define struct for the user data\n  struct BasicProfile{\n    string fname;\n    //string lname;\n    uint age;\n    //string homeAddress;\n    uint phone;\n    //string email;\n  }\n\n//define an array of users\n  BasicProfile public basicProfile;\n\n  // A person can have multiple ETH accounts, but only rootuser account.\n  // list of all friendly accounts linked a profile\n  mapping (address => address) rootUser;\n  //  root user to user profile mapping \n  mapping (address => BasicProfile) public userProfile;\n\n// // define enums for request type - create, update, reset\n//   enum Request {\n//        Update,\n//        Read\n//     }\n\n\n  modifier validUser () {\n   //ensure user has a valid profile\n   //check nested mapping to see if valid user for this profile\n    // caller has a root user address attached to their address\n    require(msg.sender != address(0), 'Invalid dude');\n    _;\n  }\n\n  /////////////////////////////////\n  ////// SAMPLE CODE FOR TESTING FROM SIMPLE STORAGE\n  ////////////////////////////////\n  uint storedData;\n\n  function set(uint x) public {\n    storedData = x;\n  }\n\n  function get() public view returns (uint) {\n    return storedData;\n  }\n\n  // fallback() external {\n  //     emit Log (\"Something went wrong\");\n  // }\n\n  event Log(string msg);\n  event Profile(uint age, uint ph, string nom);\n\n//constructor init values \n//   constructor() public {\n// nothing at the moment\n  // userProfile[msg.sender] = address[0];\n//   }\n\n  function adminTasks() public onlyOwner {\n    //some potential tasks for admin\n    // 1. transfer ownership\n    // 2. renounce ownership\n  }\n// event log and emit when user data successfully updated\n\n//////////////////////////////////////////////////////////\n//// CHECK IF WE CAN IMPLEMENT MULTI SIG WALLETS HERE\n/////////////////////////////////////////////////////////\n  function mapToRoot (address _userAddress) public {\n   //ensure user has a valid profile\n   // Account requestor (msg.sender) should be the root user\n    if(rootUser[msg.sender] == msg.sender) {\n      // map account to root user\n        rootUser[_userAddress] = msg.sender; \n    }\n  }\n  \n  // function validateAccount() external view validUser() returns (string memory) {\n  //   string memory retMsg = \"OK Valid\";\n  //   return (retMsg);\n  // }\n\n  // function setupRootUser(address userAddress) public onlyOwner validUser(){\n    // Root user access is granted by contract owner, if one doesnt exist\n  function setupRootUser(address userAddress) public onlyOwner returns (string memory) {\n    string memory retString;\n    if (rootUser[userAddress] != address(0))\n    {\n        rootUser[userAddress] = userAddress;\n        retString = \"Added\";\n    }\n    // verify root user already has an entry\n    else if(rootUser[userAddress] == userAddress)\n    {\n        emit Log(\"Already a root user\");\n        retString = \"Already root user\";\n    }\n    // For safety log invalid update attempts\n    else {\n        emit Log(\"Invalid access request\");\n        retString = \"Invalid access request\";\n    }\n    return retString;\n  }\n\n// For a valid root user, update their profile details\n  // function updateProfile(uint _age, uint _phone, string memory _name) payable public validUser(msg.sender) {\n\n  function updateProfile(uint _age, uint _phone, string memory _name) payable public {\n\n    // require(if this role has admin then allow this function to execute)\n    // valid user asking for a update\n    // require(_requestType == Request.Update);        \n        userProfile[rootUser[msg.sender]].fname = _name;\n        userProfile[rootUser[msg.sender]].age = _age;\n        userProfile[rootUser[msg.sender]].phone = _phone;\n\n        emit Log(\"Updated Profile\");\n    }\n\n// Retrieve user profile data \n// coding best practice: not receommended to return an array from a function.. Cos it can get called \n// repeatedly and costs gas.\n  function readProfile() external validUser() returns(string memory _name, uint _age, uint _phone){\n            _name = userProfile[rootUser[msg.sender]].fname;\n            _age = userProfile[rootUser[msg.sender]].age;\n            _phone = userProfile[rootUser[msg.sender]].phone;\n            // log output for testing\n            emit Profile(_age, _phone, _name);\n            return (_name, _age, _phone);\n  }\n}",
  "sourcePath": "/Users/shaamaa/github/final-project/contracts/IdentityWallet.sol",
  "compiler": {
    "name": "solc",
    "version": "0.8.10+commit.fc410830.Emscripten.clang"
  },
  "schemaVersion": "3.4.3",
  "updatedAt": "2021-11-24T00:57:44.906Z",
  "networkType": "ethereum",
  "devdoc": {
    "kind": "dev",
    "methods": {
      "owner()": {
        "details": "Returns the address of the current owner."
      },
      "renounceOwnership()": {
        "details": "Leaves the contract without owner. It will not be possible to call `onlyOwner` functions anymore. Can only be called by the current owner. NOTE: Renouncing ownership will leave the contract without an owner, thereby removing any functionality that is only available to the owner."
      },
      "transferOwnership(address)": {
        "details": "Transfers ownership of the contract to a new account (`newOwner`). Can only be called by the current owner."
      }
    },
    "version": 1
  },
  "userdoc": {
    "kind": "user",
    "methods": {},
    "version": 1
  }
}