{
  "contractName": "IdentityWallet",
  "abi": [
    {
      "anonymous": false,
      "inputs": [
        {
          "indexed": false,
          "internalType": "string",
          "name": "msg",
          "type": "string"
        }
      ],
      "name": "Log",
      "type": "event"
    },
    {
      "anonymous": false,
      "inputs": [
        {
          "indexed": true,
          "internalType": "address",
          "name": "previousOwner",
          "type": "address"
        },
        {
          "indexed": true,
          "internalType": "address",
          "name": "newOwner",
          "type": "address"
        }
      ],
      "name": "OwnershipTransferred",
      "type": "event"
    },
    {
      "inputs": [],
      "name": "basicProfile",
      "outputs": [
        {
          "internalType": "address",
          "name": "owner",
          "type": "address"
        },
        {
          "internalType": "string",
          "name": "fname",
          "type": "string"
        },
        {
          "internalType": "uint256",
          "name": "age",
          "type": "uint256"
        },
        {
          "internalType": "uint256",
          "name": "phone",
          "type": "uint256"
        }
      ],
      "stateMutability": "view",
      "type": "function",
      "constant": true
    },
    {
      "inputs": [],
      "name": "owner",
      "outputs": [
        {
          "internalType": "address",
          "name": "",
          "type": "address"
        }
      ],
      "stateMutability": "view",
      "type": "function",
      "constant": true
    },
    {
      "inputs": [],
      "name": "renounceOwnership",
      "outputs": [],
      "stateMutability": "nonpayable",
      "type": "function"
    },
    {
      "inputs": [
        {
          "internalType": "address",
          "name": "newOwner",
          "type": "address"
        }
      ],
      "name": "transferOwnership",
      "outputs": [],
      "stateMutability": "nonpayable",
      "type": "function"
    },
    {
      "inputs": [
        {
          "internalType": "address",
          "name": "",
          "type": "address"
        }
      ],
      "name": "userPresent",
      "outputs": [
        {
          "internalType": "bool",
          "name": "",
          "type": "bool"
        }
      ],
      "stateMutability": "view",
      "type": "function",
      "constant": true
    },
    {
      "inputs": [
        {
          "internalType": "address",
          "name": "",
          "type": "address"
        }
      ],
      "name": "userProfile",
      "outputs": [
        {
          "internalType": "address",
          "name": "owner",
          "type": "address"
        },
        {
          "internalType": "string",
          "name": "fname",
          "type": "string"
        },
        {
          "internalType": "uint256",
          "name": "age",
          "type": "uint256"
        },
        {
          "internalType": "uint256",
          "name": "phone",
          "type": "uint256"
        }
      ],
      "stateMutability": "view",
      "type": "function",
      "constant": true
    },
    {
      "inputs": [
        {
          "internalType": "uint256",
          "name": "x",
          "type": "uint256"
        }
      ],
      "name": "set",
      "outputs": [],
      "stateMutability": "nonpayable",
      "type": "function"
    },
    {
      "inputs": [],
      "name": "get",
      "outputs": [
        {
          "internalType": "uint256",
          "name": "",
          "type": "uint256"
        }
      ],
      "stateMutability": "view",
      "type": "function",
      "constant": true
    },
    {
      "inputs": [],
      "name": "adminTasks",
      "outputs": [],
      "stateMutability": "nonpayable",
      "type": "function"
    },
    {
      "inputs": [
        {
          "internalType": "uint256",
          "name": "_age",
          "type": "uint256"
        },
        {
          "internalType": "uint256",
          "name": "_phone",
          "type": "uint256"
        },
        {
          "internalType": "string",
          "name": "_name",
          "type": "string"
        }
      ],
      "name": "updateProfile",
      "outputs": [],
      "stateMutability": "payable",
      "type": "function",
      "payable": true
    },
    {
      "inputs": [],
      "name": "readProfile",
      "outputs": [
        {
          "internalType": "string",
          "name": "_name",
          "type": "string"
        },
        {
          "internalType": "uint256",
          "name": "_age",
          "type": "uint256"
        },
        {
          "internalType": "uint256",
          "name": "_phone",
          "type": "uint256"
        }
      ],
      "stateMutability": "nonpayable",
      "type": "function"
    }
  ],
  "bytecode": "0x608060405234801561001057600080fd5b5061002d61002261003260201b60201c565b61003a60201b60201c565b6100fe565b600033905090565b60008060009054906101000a900473ffffffffffffffffffffffffffffffffffffffff169050816000806101000a81548173ffffffffffffffffffffffffffffffffffffffff021916908373ffffffffffffffffffffffffffffffffffffffff1602179055508173ffffffffffffffffffffffffffffffffffffffff168173ffffffffffffffffffffffffffffffffffffffff167f8be0079c531659141344cd1fd0a4f28419497f9722a3daafe3b4186f6b6457e060405160405180910390a35050565b6115868061010d6000396000f3fe60806040526004361061009c5760003560e01c8063715018a611610064578063715018a61461019f5780638da5cb5b146101b6578063ab00a3a0146101e1578063b87d85e4146101f8578063e00f3b1f14610214578063f2fde38b146102425761009c565b806307811f28146100a15780631c8e8962146100de57806322bb93fe1461011e57806360fe47b11461014b5780636d4ce63c14610174575b600080fd5b3480156100ad57600080fd5b506100c860048036038101906100c39190610e60565b61026b565b6040516100d59190610ea8565b60405180910390f35b3480156100ea57600080fd5b5061010560048036038101906101009190610e60565b61028b565b6040516101159493929190610f84565b60405180910390f35b34801561012a57600080fd5b50610133610363565b60405161014293929190610fd0565b60405180910390f35b34801561015757600080fd5b50610172600480360381019061016d919061103a565b610605565b005b34801561018057600080fd5b5061018961060f565b6040516101969190611067565b60405180910390f35b3480156101ab57600080fd5b506101b4610619565b005b3480156101c257600080fd5b506101cb6106a1565b6040516101d89190611082565b60405180910390f35b3480156101ed57600080fd5b506101f66106ca565b005b610212600480360381019061020d91906111d2565b610748565b005b34801561022057600080fd5b50610229610ac1565b6040516102399493929190610f84565b60405180910390f35b34801561024e57600080fd5b5061026960048036038101906102649190610e60565b610b87565b005b60056020528060005260406000206000915054906101000a900460ff1681565b60066020528060005260406000206000915090508060000160009054906101000a900473ffffffffffffffffffffffffffffffffffffffff16908060010180546102d490611270565b80601f016020809104026020016040519081016040528092919081815260200182805461030090611270565b801561034d5780601f106103225761010080835404028352916020019161034d565b820191906000526020600020905b81548152906001019060200180831161033057829003601f168201915b5050505050908060020154908060030154905084565b6060600080600073ffffffffffffffffffffffffffffffffffffffff163373ffffffffffffffffffffffffffffffffffffffff1614156103d8576040517f08c379a00000000000000000000000000000000000000000000000000000000081526004016103cf906112ee565b60405180910390fd5b3373ffffffffffffffffffffffffffffffffffffffff16600660003373ffffffffffffffffffffffffffffffffffffffff1673ffffffffffffffffffffffffffffffffffffffff16815260200190815260200160002060000160009054906101000a900473ffffffffffffffffffffffffffffffffffffffff1673ffffffffffffffffffffffffffffffffffffffff1614156105ca57600660003373ffffffffffffffffffffffffffffffffffffffff1673ffffffffffffffffffffffffffffffffffffffff16815260200190815260200160002060010180546104bb90611270565b80601f01602080910402602001604051908101604052809291908181526020018280546104e790611270565b80156105345780601f1061050957610100808354040283529160200191610534565b820191906000526020600020905b81548152906001019060200180831161051757829003601f168201915b50505050509250600660003373ffffffffffffffffffffffffffffffffffffffff1673ffffffffffffffffffffffffffffffffffffffff168152602001908152602001600020600201549150600660003373ffffffffffffffffffffffffffffffffffffffff1673ffffffffffffffffffffffffffffffffffffffff168152602001908152602001600020600301549050610600565b7fcf34ef537ac33ee1ac626ca1587a0a7e8e51561e5514f8cb36afa1c5102b3bab6040516105f79061135a565b60405180910390a15b909192565b8060078190555050565b6000600754905090565b610621610c7f565b73ffffffffffffffffffffffffffffffffffffffff1661063f6106a1565b73ffffffffffffffffffffffffffffffffffffffff1614610695576040517f08c379a000000000000000000000000000000000000000000000000000000000815260040161068c906113c6565b60405180910390fd5b61069f6000610c87565b565b60008060009054906101000a900473ffffffffffffffffffffffffffffffffffffffff16905090565b6106d2610c7f565b73ffffffffffffffffffffffffffffffffffffffff166106f06106a1565b73ffffffffffffffffffffffffffffffffffffffff1614610746576040517f08c379a000000000000000000000000000000000000000000000000000000000815260040161073d906113c6565b60405180910390fd5b565b600073ffffffffffffffffffffffffffffffffffffffff163373ffffffffffffffffffffffffffffffffffffffff1614156107b8576040517f08c379a00000000000000000000000000000000000000000000000000000000081526004016107af906112ee565b60405180910390fd5b600073ffffffffffffffffffffffffffffffffffffffff16600660003373ffffffffffffffffffffffffffffffffffffffff1673ffffffffffffffffffffffffffffffffffffffff16815260200190815260200160002060000160009054906101000a900473ffffffffffffffffffffffffffffffffffffffff1673ffffffffffffffffffffffffffffffffffffffff1614156108d15733600660003373ffffffffffffffffffffffffffffffffffffffff1673ffffffffffffffffffffffffffffffffffffffff16815260200190815260200160002060000160006101000a81548173ffffffffffffffffffffffffffffffffffffffff021916908373ffffffffffffffffffffffffffffffffffffffff1602179055505b3373ffffffffffffffffffffffffffffffffffffffff16600660003373ffffffffffffffffffffffffffffffffffffffff1673ffffffffffffffffffffffffffffffffffffffff16815260200190815260200160002060000160009054906101000a900473ffffffffffffffffffffffffffffffffffffffff1673ffffffffffffffffffffffffffffffffffffffff161415610a865780600660003373ffffffffffffffffffffffffffffffffffffffff1673ffffffffffffffffffffffffffffffffffffffff16815260200190815260200160002060010190805190602001906109bd929190610d4b565b5082600660003373ffffffffffffffffffffffffffffffffffffffff1673ffffffffffffffffffffffffffffffffffffffff1681526020019081526020016000206002018190555081600660003373ffffffffffffffffffffffffffffffffffffffff1673ffffffffffffffffffffffffffffffffffffffff168152602001908152602001600020600301819055507fcf34ef537ac33ee1ac626ca1587a0a7e8e51561e5514f8cb36afa1c5102b3bab604051610a7990611432565b60405180910390a1610abc565b7fcf34ef537ac33ee1ac626ca1587a0a7e8e51561e5514f8cb36afa1c5102b3bab604051610ab39061149e565b60405180910390a15b505050565b60018060000160009054906101000a900473ffffffffffffffffffffffffffffffffffffffff1690806001018054610af890611270565b80601f0160208091040260200160405190810160405280929190818152602001828054610b2490611270565b8015610b715780601f10610b4657610100808354040283529160200191610b71565b820191906000526020600020905b815481529060010190602001808311610b5457829003601f168201915b5050505050908060020154908060030154905084565b610b8f610c7f565b73ffffffffffffffffffffffffffffffffffffffff16610bad6106a1565b73ffffffffffffffffffffffffffffffffffffffff1614610c03576040517f08c379a0000000000000000000000000000000000000000000000000000000008152600401610bfa906113c6565b60405180910390fd5b600073ffffffffffffffffffffffffffffffffffffffff168173ffffffffffffffffffffffffffffffffffffffff161415610c73576040517f08c379a0000000000000000000000000000000000000000000000000000000008152600401610c6a90611530565b60405180910390fd5b610c7c81610c87565b50565b600033905090565b60008060009054906101000a900473ffffffffffffffffffffffffffffffffffffffff169050816000806101000a81548173ffffffffffffffffffffffffffffffffffffffff021916908373ffffffffffffffffffffffffffffffffffffffff1602179055508173ffffffffffffffffffffffffffffffffffffffff168173ffffffffffffffffffffffffffffffffffffffff167f8be0079c531659141344cd1fd0a4f28419497f9722a3daafe3b4186f6b6457e060405160405180910390a35050565b828054610d5790611270565b90600052602060002090601f016020900481019282610d795760008555610dc0565b82601f10610d9257805160ff1916838001178555610dc0565b82800160010185558215610dc0579182015b82811115610dbf578251825591602001919060010190610da4565b5b509050610dcd9190610dd1565b5090565b5b80821115610dea576000816000905550600101610dd2565b5090565b6000604051905090565b600080fd5b600080fd5b600073ffffffffffffffffffffffffffffffffffffffff82169050919050565b6000610e2d82610e02565b9050919050565b610e3d81610e22565b8114610e4857600080fd5b50565b600081359050610e5a81610e34565b92915050565b600060208284031215610e7657610e75610df8565b5b6000610e8484828501610e4b565b91505092915050565b60008115159050919050565b610ea281610e8d565b82525050565b6000602082019050610ebd6000830184610e99565b92915050565b610ecc81610e22565b82525050565b600081519050919050565b600082825260208201905092915050565b60005b83811015610f0c578082015181840152602081019050610ef1565b83811115610f1b576000848401525b50505050565b6000601f19601f8301169050919050565b6000610f3d82610ed2565b610f478185610edd565b9350610f57818560208601610eee565b610f6081610f21565b840191505092915050565b6000819050919050565b610f7e81610f6b565b82525050565b6000608082019050610f996000830187610ec3565b8181036020830152610fab8186610f32565b9050610fba6040830185610f75565b610fc76060830184610f75565b95945050505050565b60006060820190508181036000830152610fea8186610f32565b9050610ff96020830185610f75565b6110066040830184610f75565b949350505050565b61101781610f6b565b811461102257600080fd5b50565b6000813590506110348161100e565b92915050565b6000602082840312156110505761104f610df8565b5b600061105e84828501611025565b91505092915050565b600060208201905061107c6000830184610f75565b92915050565b60006020820190506110976000830184610ec3565b92915050565b600080fd5b600080fd5b7f4e487b7100000000000000000000000000000000000000000000000000000000600052604160045260246000fd5b6110df82610f21565b810181811067ffffffffffffffff821117156110fe576110fd6110a7565b5b80604052505050565b6000611111610dee565b905061111d82826110d6565b919050565b600067ffffffffffffffff82111561113d5761113c6110a7565b5b61114682610f21565b9050602081019050919050565b82818337600083830152505050565b600061117561117084611122565b611107565b905082815260208101848484011115611191576111906110a2565b5b61119c848285611153565b509392505050565b600082601f8301126111b9576111b861109d565b5b81356111c9848260208601611162565b91505092915050565b6000806000606084860312156111eb576111ea610df8565b5b60006111f986828701611025565b935050602061120a86828701611025565b925050604084013567ffffffffffffffff81111561122b5761122a610dfd565b5b611237868287016111a4565b9150509250925092565b7f4e487b7100000000000000000000000000000000000000000000000000000000600052602260045260246000fd5b6000600282049050600182168061128857607f821691505b6020821081141561129c5761129b611241565b5b50919050565b7f496e76616c696420557365720000000000000000000000000000000000000000600082015250565b60006112d8600c83610edd565b91506112e3826112a2565b602082019050919050565b60006020820190508181036000830152611307816112cb565b9050919050565b7f4e6f7420617574686f726973656420746f20726561642070726f66696c650000600082015250565b6000611344601e83610edd565b915061134f8261130e565b602082019050919050565b6000602082019050818103600083015261137381611337565b9050919050565b7f4f776e61626c653a2063616c6c6572206973206e6f7420746865206f776e6572600082015250565b60006113b0602083610edd565b91506113bb8261137a565b602082019050919050565b600060208201905081810360008301526113df816113a3565b9050919050565b7f557064617465642050726f66696c650000000000000000000000000000000000600082015250565b600061141c600f83610edd565b9150611427826113e6565b602082019050919050565b6000602082019050818103600083015261144b8161140f565b9050919050565b7f4e6f7420617574686f726973656420746f207570646174652070726f66696c65600082015250565b6000611488602083610edd565b915061149382611452565b602082019050919050565b600060208201905081810360008301526114b78161147b565b9050919050565b7f4f776e61626c653a206e6577206f776e657220697320746865207a65726f206160008201527f6464726573730000000000000000000000000000000000000000000000000000602082015250565b600061151a602683610edd565b9150611525826114be565b604082019050919050565b600060208201905081810360008301526115498161150d565b905091905056fea2646970667358221220728c59cbb4735d843d1e562c41e8d1e51d533666a5d671318a8382341c5e939064736f6c634300080a0033",
  "immutableReferences": {},
  "source": "// SPDX-License-Identifier: MIT\npragma solidity >=0.4.22 <0.9.0;\n\nimport \"../node_modules/@openzeppelin/contracts/access/Ownable.sol\";\n\ncontract IdentityWallet is Ownable{\n\n// map idOwner address to a unique user id\n// mapping (address => uint) private idOwner;\n// mapping (address => mapping(address => did)) public didnum;\n\n// address public owner;\n//define struct for the user data\n  struct BasicProfile{\n    address owner;\n    string fname;\n    //string lname;\n    uint age;\n    //string homeAddress;\n    uint phone;\n    //string email;\n  }\n\n//define an array of users\n  BasicProfile public basicProfile;\n\n  // mapping syntax mapping (keyType => valueType) public mapName\n  // if user has an entry set mapping to true\n  mapping (address => bool) public userPresent;\n  mapping (address => BasicProfile) public userProfile;\n  \n\n// define enums for request type - create, update, reset\n  enum Request {\n        Update,\n        Read\n    }\n\n modifier validUser () {\n   //ensure user has a valid profile\n    require(msg.sender != address(0), \"Invalid User\");\n    _;\n  }\n\n  /////////////////////////////////\n  ////// SAMPLE CODE FOR TESTING FROM SIMPLE STORAGE\n  ////////////////////////////////\n  uint storedData;\n\n  function set(uint x) public {\n    storedData = x;\n  }\n\n  function get() public view returns (uint) {\n    return storedData;\n  }\n\n  // fallback() external {\n  //     emit Log (\"Something went wrong\");\n  // }\n  event Log(string msg);\n\n//constructor init values \n//   constructor() public {\n// nothing at the moment\n  // userProfile[msg.sender] = address[0];\n//   }\n\n  function adminTasks() public onlyOwner {\n    //some potential tasks for admin\n    // 1. transfer ownership\n    // 2. renounce ownership\n  }\n// event log and emit when user data successfully updated\n\n // function to update user data [received from browser form]\n//   function updateProfile(Request _requestType, uint _age, uint _phone, string memory _name) payable public{\n  function updateProfile(uint _age, uint _phone, string memory _name) payable public validUser() {\n\n    // require(if this role has admin then allow this function to execute)\n    // valid user asking for a update\n    // require(_requestType == Request.Update);\n\n    if (userProfile[msg.sender].owner == address(0))\n    {\n      userProfile[msg.sender].owner = msg.sender;\n    }\n    \n    if (userProfile[msg.sender].owner == msg.sender) \n        {\n        // make sure msg.sender has a profile with us, if not check if profile to be created ?\n        userProfile[msg.sender].fname = _name;\n        userProfile[msg.sender].age = _age;\n        userProfile[msg.sender].phone = _phone;\n\n        emit Log(\"Updated Profile\");\n        }\n    else\n        {\n        emit Log(\"Not authorised to update profile\");\n        }\n    }\n\n// function to retrieve user data. \n// coding best practice: not receommended to return an array from a function.. Cos it can get called \n// repeatedly and cost gas.\n  function readProfile() external validUser() returns(string memory _name, uint _age, uint _phone){\n        \n        if (userProfile[msg.sender].owner == msg.sender) {\n            _name = userProfile[msg.sender].fname;\n            _age = userProfile[msg.sender].age;\n            _phone = userProfile[msg.sender].phone;\n            return (_name, _age, _phone);\n         }\n        else\n        {\n            emit Log(\"Not authorised to read profile\");\n        }\n  }\n\n}",
  "sourcePath": "/Users/shaamaa/github/final-project/contracts/IdentityWallet.sol",
  "compiler": {
    "name": "solc",
    "version": "0.8.10+commit.fc410830.Emscripten.clang"
  },
  "schemaVersion": "3.4.3",
  "updatedAt": "2021-11-15T16:39:57.809Z",
  "networkType": "ethereum",
  "devdoc": {
    "kind": "dev",
    "methods": {
      "owner()": {
        "details": "Returns the address of the current owner."
      },
      "renounceOwnership()": {
        "details": "Leaves the contract without owner. It will not be possible to call `onlyOwner` functions anymore. Can only be called by the current owner. NOTE: Renouncing ownership will leave the contract without an owner, thereby removing any functionality that is only available to the owner."
      },
      "transferOwnership(address)": {
        "details": "Transfers ownership of the contract to a new account (`newOwner`). Can only be called by the current owner."
      }
    },
    "version": 1
  },
  "userdoc": {
    "kind": "user",
    "methods": {},
    "version": 1
  }
}