{
  "contractName": "MyToken",
  "abi": [
    {
      "inputs": [
        {
          "internalType": "address",
          "name": "owner",
          "type": "address"
        }
      ],
      "stateMutability": "nonpayable",
      "type": "constructor"
    },
    {
      "anonymous": false,
      "inputs": [
        {
          "indexed": true,
          "internalType": "bytes32",
          "name": "role",
          "type": "bytes32"
        },
        {
          "indexed": true,
          "internalType": "bytes32",
          "name": "previousAdminRole",
          "type": "bytes32"
        },
        {
          "indexed": true,
          "internalType": "bytes32",
          "name": "newAdminRole",
          "type": "bytes32"
        }
      ],
      "name": "RoleAdminChanged",
      "type": "event"
    },
    {
      "anonymous": false,
      "inputs": [
        {
          "indexed": true,
          "internalType": "bytes32",
          "name": "role",
          "type": "bytes32"
        },
        {
          "indexed": true,
          "internalType": "address",
          "name": "account",
          "type": "address"
        },
        {
          "indexed": true,
          "internalType": "address",
          "name": "sender",
          "type": "address"
        }
      ],
      "name": "RoleGranted",
      "type": "event"
    },
    {
      "anonymous": false,
      "inputs": [
        {
          "indexed": true,
          "internalType": "bytes32",
          "name": "role",
          "type": "bytes32"
        },
        {
          "indexed": true,
          "internalType": "address",
          "name": "account",
          "type": "address"
        },
        {
          "indexed": true,
          "internalType": "address",
          "name": "sender",
          "type": "address"
        }
      ],
      "name": "RoleRevoked",
      "type": "event"
    },
    {
      "inputs": [],
      "name": "ADMIN_ROLE",
      "outputs": [
        {
          "internalType": "bytes32",
          "name": "",
          "type": "bytes32"
        }
      ],
      "stateMutability": "view",
      "type": "function"
    },
    {
      "inputs": [],
      "name": "DATAOWNER_ROLE",
      "outputs": [
        {
          "internalType": "bytes32",
          "name": "",
          "type": "bytes32"
        }
      ],
      "stateMutability": "view",
      "type": "function"
    },
    {
      "inputs": [],
      "name": "DEFAULT_ADMIN_ROLE",
      "outputs": [
        {
          "internalType": "bytes32",
          "name": "",
          "type": "bytes32"
        }
      ],
      "stateMutability": "view",
      "type": "function"
    },
    {
      "inputs": [],
      "name": "THIRDPARTY_ROLE",
      "outputs": [
        {
          "internalType": "bytes32",
          "name": "",
          "type": "bytes32"
        }
      ],
      "stateMutability": "view",
      "type": "function"
    },
    {
      "inputs": [
        {
          "internalType": "bytes32",
          "name": "role",
          "type": "bytes32"
        }
      ],
      "name": "getRoleAdmin",
      "outputs": [
        {
          "internalType": "bytes32",
          "name": "",
          "type": "bytes32"
        }
      ],
      "stateMutability": "view",
      "type": "function"
    },
    {
      "inputs": [
        {
          "internalType": "bytes32",
          "name": "role",
          "type": "bytes32"
        },
        {
          "internalType": "address",
          "name": "account",
          "type": "address"
        }
      ],
      "name": "grantRole",
      "outputs": [],
      "stateMutability": "nonpayable",
      "type": "function"
    },
    {
      "inputs": [
        {
          "internalType": "bytes32",
          "name": "role",
          "type": "bytes32"
        },
        {
          "internalType": "address",
          "name": "account",
          "type": "address"
        }
      ],
      "name": "hasRole",
      "outputs": [
        {
          "internalType": "bool",
          "name": "",
          "type": "bool"
        }
      ],
      "stateMutability": "view",
      "type": "function"
    },
    {
      "inputs": [
        {
          "internalType": "bytes32",
          "name": "role",
          "type": "bytes32"
        },
        {
          "internalType": "address",
          "name": "account",
          "type": "address"
        }
      ],
      "name": "renounceRole",
      "outputs": [],
      "stateMutability": "nonpayable",
      "type": "function"
    },
    {
      "inputs": [
        {
          "internalType": "bytes32",
          "name": "role",
          "type": "bytes32"
        },
        {
          "internalType": "address",
          "name": "account",
          "type": "address"
        }
      ],
      "name": "revokeRole",
      "outputs": [],
      "stateMutability": "nonpayable",
      "type": "function"
    },
    {
      "inputs": [
        {
          "internalType": "bytes4",
          "name": "interfaceId",
          "type": "bytes4"
        }
      ],
      "name": "supportsInterface",
      "outputs": [
        {
          "internalType": "bool",
          "name": "",
          "type": "bool"
        }
      ],
      "stateMutability": "view",
      "type": "function"
    },
    {
      "inputs": [
        {
          "internalType": "address",
          "name": "_thirdParty",
          "type": "address"
        }
      ],
      "name": "setupThirdParty",
      "outputs": [],
      "stateMutability": "nonpayable",
      "type": "function"
    },
    {
      "inputs": [
        {
          "internalType": "address",
          "name": "_dataOwner",
          "type": "address"
        }
      ],
      "name": "setupdataOwner",
      "outputs": [],
      "stateMutability": "nonpayable",
      "type": "function"
    },
    {
      "inputs": [
        {
          "internalType": "address",
          "name": "_thirdParty",
          "type": "address"
        }
      ],
      "name": "thirdParty",
      "outputs": [],
      "stateMutability": "view",
      "type": "function"
    },
    {
      "inputs": [
        {
          "internalType": "address",
          "name": "_dataOwner",
          "type": "address"
        }
      ],
      "name": "dataOwner",
      "outputs": [],
      "stateMutability": "view",
      "type": "function"
    }
  ],
  "bytecode": "0x60806040523480156200001157600080fd5b506040516200158338038062001583833981810160405281019062000037919062000253565b620000697fa49807205ce4d355092ef5a8a18f56e8913cf4a201fbe287825b095693c21775336200007060201b60201c565b5062000285565b6200008282826200008660201b60201c565b5050565b6200009882826200017760201b60201c565b6200017357600160008084815260200190815260200160002060000160008373ffffffffffffffffffffffffffffffffffffffff1673ffffffffffffffffffffffffffffffffffffffff16815260200190815260200160002060006101000a81548160ff02191690831515021790555062000118620001e160201b60201c565b73ffffffffffffffffffffffffffffffffffffffff168173ffffffffffffffffffffffffffffffffffffffff16837f2f8788117e7eff1d82e926ec794901d17c78024a50270940304540a733656f0d60405160405180910390a45b5050565b600080600084815260200190815260200160002060000160008373ffffffffffffffffffffffffffffffffffffffff1673ffffffffffffffffffffffffffffffffffffffff16815260200190815260200160002060009054906101000a900460ff16905092915050565b600033905090565b600080fd5b600073ffffffffffffffffffffffffffffffffffffffff82169050919050565b60006200021b82620001ee565b9050919050565b6200022d816200020e565b81146200023957600080fd5b50565b6000815190506200024d8162000222565b92915050565b6000602082840312156200026c576200026b620001e9565b5b60006200027c848285016200023c565b91505092915050565b6112ee80620002956000396000f3fe608060405234801561001057600080fd5b50600436106100ea5760003560e01c80634d627d881161008c578063a217fddf11610066578063a217fddf14610249578063cdfe9cbd14610267578063d547741f14610283578063e37421ab1461029f576100ea565b80634d627d88146101df57806375b238fc146101fb57806391d1485414610219576100ea565b80632d8e8aa7116100c85780632d8e8aa71461016d5780632f2ff15d1461018b57806336568abe146101a75780634393bf64146101c3576100ea565b806301ffc9a7146100ef5780631ad808a91461011f578063248a9ca31461013d575b600080fd5b61010960048036038101906101049190610ba1565b6102bb565b6040516101169190610be9565b60405180910390f35b610127610335565b6040516101349190610c1d565b60405180910390f35b61015760048036038101906101529190610c64565b610359565b6040516101649190610c1d565b60405180910390f35b610175610378565b6040516101829190610c1d565b60405180910390f35b6101a560048036038101906101a09190610cef565b61039c565b005b6101c160048036038101906101bc9190610cef565b6103c5565b005b6101dd60048036038101906101d89190610d2f565b610448565b005b6101f960048036038101906101f49190610d2f565b610475565b005b6102036104e1565b6040516102109190610c1d565b60405180910390f35b610233600480360381019061022e9190610cef565b610505565b6040516102409190610be9565b60405180910390f35b61025161056f565b60405161025e9190610c1d565b60405180910390f35b610281600480360381019061027c9190610d2f565b610576565b005b61029d60048036038101906102989190610cef565b6105e2565b005b6102b960048036038101906102b49190610d2f565b61060b565b005b60007f7965db0b000000000000000000000000000000000000000000000000000000007bffffffffffffffffffffffffffffffffffffffffffffffffffffffff1916827bffffffffffffffffffffffffffffffffffffffffffffffffffffffff1916148061032e575061032d82610638565b5b9050919050565b7ffa1c823d46e09e700138bb8588b94ceb84b2c3a938cc1af9b0c694f57d816a1981565b6000806000838152602001908152602001600020600101549050919050565b7fe9ae4612e179a449213ac91ae0ce9408ecf19009f4c0189e8f150705a2d71bbb81565b6103a582610359565b6103b6816103b16106a2565b6106aa565b6103c08383610747565b505050565b6103cd6106a2565b73ffffffffffffffffffffffffffffffffffffffff168173ffffffffffffffffffffffffffffffffffffffff161461043a576040517f08c379a000000000000000000000000000000000000000000000000000000000815260040161043190610ddf565b60405180910390fd5b6104448282610827565b5050565b6104727ffa1c823d46e09e700138bb8588b94ceb84b2c3a938cc1af9b0c694f57d816a198261039c565b50565b61049f7fe9ae4612e179a449213ac91ae0ce9408ecf19009f4c0189e8f150705a2d71bbb33610505565b6104de576040517f08c379a00000000000000000000000000000000000000000000000000000000081526004016104d590610e71565b60405180910390fd5b50565b7fa49807205ce4d355092ef5a8a18f56e8913cf4a201fbe287825b095693c2177581565b600080600084815260200190815260200160002060000160008373ffffffffffffffffffffffffffffffffffffffff1673ffffffffffffffffffffffffffffffffffffffff16815260200190815260200160002060009054906101000a900460ff16905092915050565b6000801b81565b6105a07ffa1c823d46e09e700138bb8588b94ceb84b2c3a938cc1af9b0c694f57d816a1933610505565b6105df576040517f08c379a00000000000000000000000000000000000000000000000000000000081526004016105d690610f03565b60405180910390fd5b50565b6105eb82610359565b6105fc816105f76106a2565b6106aa565b6106068383610827565b505050565b6106357fe9ae4612e179a449213ac91ae0ce9408ecf19009f4c0189e8f150705a2d71bbb8261039c565b50565b60007f01ffc9a7000000000000000000000000000000000000000000000000000000007bffffffffffffffffffffffffffffffffffffffffffffffffffffffff1916827bffffffffffffffffffffffffffffffffffffffffffffffffffffffff1916149050919050565b600033905090565b6106b48282610505565b610743576106d98173ffffffffffffffffffffffffffffffffffffffff166014610908565b6106e78360001c6020610908565b6040516020016106f8929190611035565b6040516020818303038152906040526040517f08c379a000000000000000000000000000000000000000000000000000000000815260040161073a91906110b9565b60405180910390fd5b5050565b6107518282610505565b61082357600160008084815260200190815260200160002060000160008373ffffffffffffffffffffffffffffffffffffffff1673ffffffffffffffffffffffffffffffffffffffff16815260200190815260200160002060006101000a81548160ff0219169083151502179055506107c86106a2565b73ffffffffffffffffffffffffffffffffffffffff168173ffffffffffffffffffffffffffffffffffffffff16837f2f8788117e7eff1d82e926ec794901d17c78024a50270940304540a733656f0d60405160405180910390a45b5050565b6108318282610505565b1561090457600080600084815260200190815260200160002060000160008373ffffffffffffffffffffffffffffffffffffffff1673ffffffffffffffffffffffffffffffffffffffff16815260200190815260200160002060006101000a81548160ff0219169083151502179055506108a96106a2565b73ffffffffffffffffffffffffffffffffffffffff168173ffffffffffffffffffffffffffffffffffffffff16837ff6391f5c32d9c69d2a47ea670b442974b53935d1edc7fd64eb21e047a839171b60405160405180910390a45b5050565b60606000600283600261091b9190611114565b610925919061116e565b67ffffffffffffffff81111561093e5761093d6111c4565b5b6040519080825280601f01601f1916602001820160405280156109705781602001600182028036833780820191505090505b5090507f3000000000000000000000000000000000000000000000000000000000000000816000815181106109a8576109a76111f3565b5b60200101907effffffffffffffffffffffffffffffffffffffffffffffffffffffffffffff1916908160001a9053507f780000000000000000000000000000000000000000000000000000000000000081600181518110610a0c57610a0b6111f3565b5b60200101907effffffffffffffffffffffffffffffffffffffffffffffffffffffffffffff1916908160001a90535060006001846002610a4c9190611114565b610a56919061116e565b90505b6001811115610af6577f3031323334353637383961626364656600000000000000000000000000000000600f861660108110610a9857610a976111f3565b5b1a60f81b828281518110610aaf57610aae6111f3565b5b60200101907effffffffffffffffffffffffffffffffffffffffffffffffffffffffffffff1916908160001a905350600485901c945080610aef90611222565b9050610a59565b5060008414610b3a576040517f08c379a0000000000000000000000000000000000000000000000000000000008152600401610b3190611298565b60405180910390fd5b8091505092915050565b600080fd5b60007fffffffff0000000000000000000000000000000000000000000000000000000082169050919050565b610b7e81610b49565b8114610b8957600080fd5b50565b600081359050610b9b81610b75565b92915050565b600060208284031215610bb757610bb6610b44565b5b6000610bc584828501610b8c565b91505092915050565b60008115159050919050565b610be381610bce565b82525050565b6000602082019050610bfe6000830184610bda565b92915050565b6000819050919050565b610c1781610c04565b82525050565b6000602082019050610c326000830184610c0e565b92915050565b610c4181610c04565b8114610c4c57600080fd5b50565b600081359050610c5e81610c38565b92915050565b600060208284031215610c7a57610c79610b44565b5b6000610c8884828501610c4f565b91505092915050565b600073ffffffffffffffffffffffffffffffffffffffff82169050919050565b6000610cbc82610c91565b9050919050565b610ccc81610cb1565b8114610cd757600080fd5b50565b600081359050610ce981610cc3565b92915050565b60008060408385031215610d0657610d05610b44565b5b6000610d1485828601610c4f565b9250506020610d2585828601610cda565b9150509250929050565b600060208284031215610d4557610d44610b44565b5b6000610d5384828501610cda565b91505092915050565b600082825260208201905092915050565b7f416363657373436f6e74726f6c3a2063616e206f6e6c792072656e6f756e636560008201527f20726f6c657320666f722073656c660000000000000000000000000000000000602082015250565b6000610dc9602f83610d5c565b9150610dd482610d6d565b604082019050919050565b60006020820190508181036000830152610df881610dbc565b9050919050565b7f43616c6c6572206973206e6f74206120617574686f726973656420444154412060008201527f4f574e4552200000000000000000000000000000000000000000000000000000602082015250565b6000610e5b602683610d5c565b9150610e6682610dff565b604082019050919050565b60006020820190508181036000830152610e8a81610e4e565b9050919050565b7f43616c6c6572206973206e6f74206120617574686f726973656420746869726460008201527f2070617274790000000000000000000000000000000000000000000000000000602082015250565b6000610eed602683610d5c565b9150610ef882610e91565b604082019050919050565b60006020820190508181036000830152610f1c81610ee0565b9050919050565b600081905092915050565b7f416363657373436f6e74726f6c3a206163636f756e7420000000000000000000600082015250565b6000610f64601783610f23565b9150610f6f82610f2e565b601782019050919050565b600081519050919050565b60005b83811015610fa3578082015181840152602081019050610f88565b83811115610fb2576000848401525b50505050565b6000610fc382610f7a565b610fcd8185610f23565b9350610fdd818560208601610f85565b80840191505092915050565b7f206973206d697373696e6720726f6c6520000000000000000000000000000000600082015250565b600061101f601183610f23565b915061102a82610fe9565b601182019050919050565b600061104082610f57565b915061104c8285610fb8565b915061105782611012565b91506110638284610fb8565b91508190509392505050565b6000601f19601f8301169050919050565b600061108b82610f7a565b6110958185610d5c565b93506110a5818560208601610f85565b6110ae8161106f565b840191505092915050565b600060208201905081810360008301526110d38184611080565b905092915050565b6000819050919050565b7f4e487b7100000000000000000000000000000000000000000000000000000000600052601160045260246000fd5b600061111f826110db565b915061112a836110db565b9250817fffffffffffffffffffffffffffffffffffffffffffffffffffffffffffffffff0483118215151615611163576111626110e5565b5b828202905092915050565b6000611179826110db565b9150611184836110db565b9250827fffffffffffffffffffffffffffffffffffffffffffffffffffffffffffffffff038211156111b9576111b86110e5565b5b828201905092915050565b7f4e487b7100000000000000000000000000000000000000000000000000000000600052604160045260246000fd5b7f4e487b7100000000000000000000000000000000000000000000000000000000600052603260045260246000fd5b600061122d826110db565b91506000821415611241576112406110e5565b5b600182039050919050565b7f537472696e67733a20686578206c656e67746820696e73756666696369656e74600082015250565b6000611282602083610d5c565b915061128d8261124c565b602082019050919050565b600060208201905081810360008301526112b181611275565b905091905056fea26469706673582212205056efb00d01b707bec804eedbd21aee02e5595babbed472e449417a8f8f50fa64736f6c634300080a0033",
  "immutableReferences": {},
  "source": "// SPDX-License-Identifier: MIT\n\npragma solidity >=0.4.22 <0.9.0;\n\nimport \"../node_modules/@openzeppelin/contracts/access/AccessControl.sol\";\n// import \"../mode_modules/@openzeppelin/contracts/token/ERC20/ERC20.sol\";\n\ncontract MyToken is AccessControl {\n    // Create a new role identifier for the minter role\n    bytes32 public constant ADMIN_ROLE = keccak256(\"ADMIN_ROLE\");\n    bytes32 public constant DATAOWNER_ROLE = keccak256(\"DATAOWNER_ROLE\");\n    bytes32 public constant THIRDPARTY_ROLE = keccak256(\"THIRDPARTY_ROLE\");\n\n    constructor(address owner)  {\n          // Grant the admin role to the person who created the contract\n        _setupRole(ADMIN_ROLE, msg.sender);\n    }\n\n    function setupThirdParty (address _thirdParty) public {\n        grantRole(THIRDPARTY_ROLE, _thirdParty);\n    }\n\n    function setupdataOwner (address _dataOwner) public {\n        grantRole(DATAOWNER_ROLE, _dataOwner);\n    }\n    function thirdParty(address _thirdParty) public view {\n        // Check that the calling account has the minter role\n        require(hasRole(THIRDPARTY_ROLE, msg.sender), \"Caller is not a authorised third party\");\n        // _mint(to, amount);\n    }\n      \n\n   function dataOwner(address _dataOwner) public view {\n        // Check that the calling account has the minter role\n        require(hasRole(DATAOWNER_ROLE, msg.sender), \"Caller is not a authorised DATA OWNER \");\n        // _mint(to, amount);\n    \n    }\n}\n\n ",
  "sourcePath": "/Users/shaamaa/github/final-project/contracts/role.sol",
  "compiler": {
    "name": "solc",
    "version": "0.8.10+commit.fc410830.Emscripten.clang"
  },
  "schemaVersion": "3.4.3",
  "updatedAt": "2021-11-14T16:13:35.270Z",
  "devdoc": {
    "kind": "dev",
    "methods": {
      "getRoleAdmin(bytes32)": {
        "details": "Returns the admin role that controls `role`. See {grantRole} and {revokeRole}. To change a role's admin, use {_setRoleAdmin}."
      },
      "grantRole(bytes32,address)": {
        "details": "Grants `role` to `account`. If `account` had not been already granted `role`, emits a {RoleGranted} event. Requirements: - the caller must have ``role``'s admin role."
      },
      "hasRole(bytes32,address)": {
        "details": "Returns `true` if `account` has been granted `role`."
      },
      "renounceRole(bytes32,address)": {
        "details": "Revokes `role` from the calling account. Roles are often managed via {grantRole} and {revokeRole}: this function's purpose is to provide a mechanism for accounts to lose their privileges if they are compromised (such as when a trusted device is misplaced). If the calling account had been granted `role`, emits a {RoleRevoked} event. Requirements: - the caller must be `account`."
      },
      "revokeRole(bytes32,address)": {
        "details": "Revokes `role` from `account`. If `account` had been granted `role`, emits a {RoleRevoked} event. Requirements: - the caller must have ``role``'s admin role."
      },
      "supportsInterface(bytes4)": {
        "details": "See {IERC165-supportsInterface}."
      }
    },
    "version": 1
  },
  "userdoc": {
    "kind": "user",
    "methods": {},
    "version": 1
  }
}